{
  "contractName": "Migrations",
  "abi": [
    {
      "inputs": [],
      "payable": false,
      "stateMutability": "nonpayable",
      "type": "constructor"
    },
    {
      "constant": true,
      "inputs": [],
      "name": "last_completed_migration",
      "outputs": [
        {
          "internalType": "uint256",
          "name": "",
          "type": "uint256"
        }
      ],
      "payable": false,
      "stateMutability": "view",
      "type": "function"
    },
    {
      "constant": true,
      "inputs": [],
      "name": "owner",
      "outputs": [
        {
          "internalType": "address",
          "name": "",
          "type": "address"
        }
      ],
      "payable": false,
      "stateMutability": "view",
      "type": "function"
    },
    {
      "constant": false,
      "inputs": [
        {
          "internalType": "uint256",
          "name": "completed",
          "type": "uint256"
        }
      ],
      "name": "setCompleted",
      "outputs": [],
      "payable": false,
      "stateMutability": "nonpayable",
      "type": "function"
    },
    {
      "constant": false,
      "inputs": [
        {
          "internalType": "address",
          "name": "new_address",
          "type": "address"
        }
      ],
      "name": "upgrade",
      "outputs": [],
      "payable": false,
      "stateMutability": "nonpayable",
      "type": "function"
    },
    {
      "constant": true,
      "inputs": [],
      "name": "getter",
      "outputs": [
        {
          "internalType": "uint256",
          "name": "",
          "type": "uint256"
        }
      ],
      "payable": false,
      "stateMutability": "view",
      "type": "function"
    },
    {
      "constant": false,
      "inputs": [
        {
          "internalType": "uint256",
          "name": "new_completed_migration",
          "type": "uint256"
        }
      ],
      "name": "setter",
      "outputs": [],
      "payable": false,
      "stateMutability": "nonpayable",
      "type": "function"
    },
    {
      "constant": true,
      "inputs": [],
      "name": "balanceOfContract",
      "outputs": [
        {
          "internalType": "uint256",
          "name": "",
          "type": "uint256"
        }
      ],
      "payable": false,
      "stateMutability": "view",
      "type": "function"
    }
  ],
  "bytecode": "0x608060405234801561001057600080fd5b50600080546001600160a01b03191633179055610220806100326000396000f3fe608060405234801561001057600080fd5b506004361061007d5760003560e01c8063993a04b71161005b578063993a04b7146100e8578063d423740b146100f0578063e6c7c4561461010d578063fdacd576146101155761007d565b80630900f01014610082578063445df0ac146100aa5780638da5cb5b146100c4575b600080fd5b6100a86004803603602081101561009857600080fd5b50356001600160a01b0316610132565b005b6100b26101af565b60408051918252519081900360200190f35b6100cc6101b5565b604080516001600160a01b039092168252519081900360200190f35b6100b26101c4565b6100a86004803603602081101561010657600080fd5b50356101ca565b6100b26101cf565b6100a86004803603602081101561012b57600080fd5b50356101d3565b6000546001600160a01b03163314156101ac576000819050806001600160a01b031663fdacd5766001546040518263ffffffff1660e01b815260040180828152602001915050600060405180830381600087803b15801561019257600080fd5b505af11580156101a6573d6000803e3d6000fd5b50505050505b50565b60015481565b6000546001600160a01b031681565b60015490565b600155565b4790565b6000546001600160a01b03163314156101ac5760015556fea265627a7a723158208623acc2260b6a12182a01be3e110d2ed3b3f992dc9ed807031600e2ccdf368364736f6c63430005100032",
  "source": "pragma solidity >=0.4.22 <0.7.0;\n\ncontract Migrations {\n  address public owner;\n  uint256 public last_completed_migration;\n\n   modifier restricted() {\n    if (msg.sender == owner) _;\n  }\n\n  constructor() public {\n    owner = msg.sender;\n  }\n\n  function setCompleted(uint completed) public restricted {\n    last_completed_migration = completed;\n  }\n\n  function upgrade(address new_address) public restricted {\n    Migrations upgraded = Migrations(new_address);\n    upgraded.setCompleted(last_completed_migration);\n  }\n\n  function getter() public view returns(uint256) {\n    return last_completed_migration;\n  }\n\n  function setter(uint256 new_completed_migration) public {\n    last_completed_migration = new_completed_migration;\n  }\n\n  function balanceOfContract() public view returns(uint) {\n    return address(this).balance;\n  }\n}\n",
  "sourcePath": "C:\\Users\\Stav\\Desktop\\Projects\\home-assignment-tests\\contracts\\Migrations.sol",
  "compiler": {
    "name": "solc",
    "version": "0.5.16+commit.9c3226ce.Emscripten.clang"
  },
  "schemaVersion": "3.4.4",
  "updatedAt": "2024-01-26T15:42:47.081Z",
  "networkType": "ethereum",
  "devdoc": {
    "methods": {}
  },
  "userdoc": {
    "methods": {}
  }
}