{
  "contractName": "Migrations",
  "abi": [
    {
      "anonymous": false,
      "inputs": [
        {
          "indexed": false,
          "internalType": "uint256",
          "name": "oldValue",
          "type": "uint256"
        },
        {
          "indexed": false,
          "internalType": "uint256",
          "name": "newValue",
          "type": "uint256"
        }
      ],
      "name": "ValueChanged",
      "type": "event"
    },
    {
      "constant": true,
      "inputs": [],
      "name": "last_completed_migration",
      "outputs": [
        {
          "internalType": "uint256",
          "name": "",
          "type": "uint256"
        }
      ],
      "payable": false,
      "stateMutability": "view",
      "type": "function"
    },
    {
      "constant": true,
      "inputs": [],
      "name": "owner",
      "outputs": [
        {
          "internalType": "address payable",
          "name": "",
          "type": "address"
        }
      ],
      "payable": false,
      "stateMutability": "view",
      "type": "function"
    },
    {
      "constant": false,
      "inputs": [
        {
          "internalType": "uint256",
          "name": "completed",
          "type": "uint256"
        }
      ],
      "name": "setCompleted",
      "outputs": [],
      "payable": false,
      "stateMutability": "nonpayable",
      "type": "function"
    },
    {
      "constant": false,
      "inputs": [
        {
          "internalType": "address",
          "name": "new_address",
          "type": "address"
        }
      ],
      "name": "upgrade",
      "outputs": [],
      "payable": false,
      "stateMutability": "nonpayable",
      "type": "function"
    },
    {
      "constant": false,
      "inputs": [],
      "name": "changeValue",
      "outputs": [],
      "payable": true,
      "stateMutability": "payable",
      "type": "function"
    },
    {
      "constant": false,
      "inputs": [
        {
          "internalType": "address payable",
          "name": "_to",
          "type": "address"
        }
      ],
      "name": "sendEther",
      "outputs": [],
      "payable": true,
      "stateMutability": "payable",
      "type": "function"
    }
  ],
  "bytecode": "0x608060405234801561001057600080fd5b506102c8806100206000396000f3fe6080604052600436106100555760003560e01c80630900f0101461005a578063445df0ac1461008f57806348c981e2146100b65780638da5cb5b146100dc578063c5cf81d51461010d578063fdacd57614610115575b600080fd5b34801561006657600080fd5b5061008d6004803603602081101561007d57600080fd5b50356001600160a01b031661013f565b005b34801561009b57600080fd5b506100a46101bc565b60408051918252519081900360200190f35b61008d600480360360208110156100cc57600080fd5b50356001600160a01b03166101c2565b3480156100e857600080fd5b506100f1610228565b604080516001600160a01b039092168252519081900360200190f35b61008d610237565b34801561012157600080fd5b5061008d6004803603602081101561013857600080fd5b503561027b565b6000546001600160a01b03163314156101b9576000819050806001600160a01b031663fdacd5766001546040518263ffffffff1660e01b815260040180828152602001915050600060405180830381600087803b15801561019f57600080fd5b505af11580156101b3573d6000803e3d6000fd5b50505050505b50565b60015481565b6040516000906001600160a01b038316903480156108fc029184818181858888f19350505050905080610224576040805162461bcd60e51b81526020600482015260056024820152644661696c2160d81b604482015290519081900360640190fd5b5050565b6000546001600160a01b031681565b6040805134808252602082018190528251909283927f2db947ef788961acc438340dbcb4e242f80d026b621b7c98ee30619950390382929081900390910190a15050565b6000546001600160a01b03163314156101b95760015556fea265627a7a72315820c5e1e0f6fb1e08519ff6685de6c5cb2962d819b436cfc2ba4cb83a053ccfd31b64736f6c63430005100032",
  "source": "// SPDX-License-Identifier: MIT \npragma solidity >=0.4.22 <0.9.0;\n\ncontract Migrations {\n  address payable public owner;\n  uint256 public last_completed_migration;\n\n   modifier restricted() {\n    if (msg.sender == owner) _;\n  }\n\n  // constructor() public {\n  //   owner = msg.sender;\n  // }\n\n  function setCompleted(uint completed) public restricted {\n    last_completed_migration = completed;\n  }\n\n  function upgrade(address new_address) public restricted {\n    Migrations upgraded = Migrations(new_address);\n    upgraded.setCompleted(last_completed_migration);\n  }\n\n  // function setter(uint256 new_completed_migration) public {\n  //   last_completed_migration = new_completed_migration;\n  // }\n\n  // function balanceOfContract() public view returns(uint) {\n  //   return address(this).balance;\n  // }\n\n  // function getter(uint amount) public view returns(value) {\n  //   return address(this).value;\n  // }\n    event ValueChanged(uint oldValue, uint newValue);\n\n    function changeValue() external payable {\n        uint oldValue = msg.value;\n\n        // Change the value (for example, double it)\n        uint newValue = oldValue;\n\n        // Emit an event to log the change\n        emit ValueChanged(oldValue, newValue);\n    }\n\n  function sendEther(address payable _to) public payable{\n    bool sent = _to.send(msg.value);\n    require(sent, \"Fail!\");\n  }\n}\n",
  "sourcePath": "C:\\Users\\Stav\\Desktop\\Projects\\home-assignment-tests\\contracts\\Migrations.sol",
  "compiler": {
    "name": "solc",
    "version": "0.5.16+commit.9c3226ce.Emscripten.clang"
  },
  "schemaVersion": "3.4.4",
  "updatedAt": "2024-01-28T23:29:39.539Z",
  "networkType": "ethereum",
  "devdoc": {
    "methods": {}
  },
  "userdoc": {
    "methods": {}
  }
}